S01500004750494F5F53656374696F6E312E737265637B
S11300000C942A000C9434000C9434000C943400A6
S11300100C9434000C9434000C9434000C9434008C
S11300200C9434000C9434000C9434000C9434007C
S11300300C9434000C9434000C9434000C9434006C
S11300400C9434000C9434000C9434000C9434005C
S11300500C94340011241FBECFE5D8E0DEBFCDBF21
S11300600E9436000C948B000C94000080EE81BB3F
S113007012BA81B38E7F81BB82B3816082BB809BC5
S1130080FECF959907C0969908C0979B09C081E057
S113009090E008C081E090E005C081E090E002C0FB
S11300A080E090E0892B69F482B3806282BB2FEFF9
S11300B084E39CE0215080409040E1F700C00000C0
S11300C0DECF969905C0979B06C081E090E005C0FD
S11300D081E090E002C080E090E0892B69F482B373
S11300E0806482BB2FEF84E39CE0215080409040E9
S11300F0E1F700C00000C3CF9799C1CF82B38068F5
S113010082BB2FEF84E39CE0215080409040E1F7D4
S10D011000C00000B4CFF894FFCF44
S9030000FC
