:100000000C942A000C9434000C9434000C943400AA
:100010000C9434000C9434000C9434000C94340090
:100020000C9434000C9434000C9434000C94340080
:100030000C9434000C9434000C9434000C94340070
:100040000C9434000C9434000C9434000C94340060
:100050000C94340011241FBECFE5D8E0DEBFCDBF25
:100060000E9436000C9495000C94000080EE81BB39
:1000700012BA959907C0969908C0979B09C081E06C
:1000800090E008C081E090E005C081E090E002C00F
:1000900080E090E0892B69F782B3806282BB2FEF0A
:1000A00084E39CE0215080409040E1F700C00000D4
:1000B00082B3806482BB2FEF84E39CE021508040B8
:1000C0009040E1F700C0000082B3806882BB2FEF50
:1000D00084E39CE0215080409040E1F700C00000A4
:1000E00082B38F7782BB2FEF84E39CE02150804066
:1000F0009040E1F700C0000082B38F7B82BB2FEFFE
:1001000084E39CE0215080409040E1F700C0000073
:1001100082B38F7D82BB2FEF84E39CE0215080402F
:0E0120009040E1F700C00000A4CFF894FFCF9C
:00000001FF
