:100000000C942A000C9434000C9434000C943400AA
:100010000C9434000C9434000C9434000C94340090
:100020000C9434000C9434000C9434000C94340080
:100030000C9434000C9434000C9434000C94340070
:100040000C9434000C9434000C9434000C94340060
:100050000C94340011241FBECFE5D8E0DEBFCDBF25
:100060000E9436000C9456000C94000012BA81B322
:10007000806181BB82B38F7E82BB81B38E7F81BB67
:1000800082B3816082BB0CC02FE78AE196E02150E9
:1000900080409040E1F700C0000082B3806182BBE5
:1000A0008099F2CF82B38F7E82BBFACFF894FFCFD4
:00000001FF
